:10000000F5C0000021C100001FC100001DC100009B
:100010001BC1000019C1000017C1000015C100007C
:1000200013C1000011C100000FC100000DC100008C
:100030000BC1000009C1000007C1000005C100009C
:1000400003C1000001C10000FFC00000FDC00000AE
:10005000FBC00000F9C00000F7C0000071C3000041
:10006000F3C0000037C300000CC30000EDC0000067
:10007000EBC00000E9C00000E7C00000E5C00000E0
:10008000E3C00000E1C00000DFC00000DDC00000F0
:10009000DBC00000D9C00000D7C00000D5C0000000
:1000A000D3C00000D1C00000CFC00000CDC0000010
:1000B000CBC00000C9C00000C7C00000C5C0000020
:1000C000C3C00000C1C00000BFC00000BDC0000030
:1000D000BBC00000B9C00000B7C00000B5C0000040
:1000E000B3C0000000002100240027002A002D00DA
:1000F0003000330001010000040107010A01000083
:100100002200250028002B002E00310034000201BF
:100110000000050108010B01050505050705080894
:100120000808020202020A0A080804040404010181
:100130000101010101010303030303030303040796
:1001400007070C0C0C0C0C0C0C0C0202020206062D
:100150000606060606060B0B0B0B0B0B0B0B010220
:1001600010202008081020401020408002010201C9
:100170000804020101020408102040808040201081
:1001800008040201800402018040201008040201DA
:100190000804020101020408102040800102040842
:1001A0001020408000000A0B02090C0D0E08070306
:1001B000040100000000000000000000000000003A
:1001C000000000000000000000000000000000002F
:1001D00012111000000000000000000000000000EC
:1001E00000000000000000000000BE0411241FBE3B
:1001F000CFEFD1E2DEBFCDBF00E00CBF12E0A0E048
:10020000B2E0EAEEF9E000E00BBF02C007900D9209
:10021000A631B107D9F722E0A6E1B2E001C01D92F4
:10022000AC3BB207E1F710E0C6EFD0E000E005C05C
:1002300021970109802FFE01CED3C53FD10780E071
:100240000807B1F7C7D2CFC3DBCE382FE1EBF1E01F
:100250008491EBE6F1E02491E5E2F1E094919923B9
:1002600009F434C0882309F181508231F0F4E82F79
:10027000F0E08827E25CFE4F8F4FADC36F01730142
:10028000500167016B01550176017C0180018601F7
:100290008A018E019401980155019C01A201A601D9
:1002A000809180008F7780938000E92FF0E0EE0F3F
:1002B000FF1FE250FF4FA591B4918FB7F894EC91D6
:1002C000311148C020952E232C938FBF0895809123
:1002D00080008F7DE8CF80918000877FE4CF84B558
:1002E0008F7784BDE2CF84B58F7DFBCF8091B00046
:1002F0008F778093B000D9CF8091B0008F7DF9CFF8
:10030000809190008F7780939000CFCF8091900064
:100310008F7DF9CF80919000877FF5CF8091A000ED
:100320008F778093A000C1CF8091A0008F7DF9CFFF
:100330008091A000877FF5CF809120018F778093F7
:100340002001B3CF809120018F7DF9CF80912001D2
:10035000877FF5CF2E2BB8CFAF92BF92CF92DF928F
:10036000EF92FF920F931F93CF93DF936C017B016A
:100370008B01040F151FEB015E01AE18BF08C017FB
:10038000D10759F06991D601ED91FC910190F0816E
:10039000E02DC6011995892B79F7C501DF91CF9121
:1003A0001F910F91FF90EF90DF90CF90BF90AF9093
:1003B0000895FC01538D448D252F30E0842F90E06B
:1003C000821B930B541710F0CF9608950197089550
:1003D000FC01918D828D981761F0A28DAE0FBF2F19
:1003E000B11D5D968C91928D9F5F9F73928F90E06F
:1003F00008958FEF9FEF0895FC01918D828D9817DE
:1004000031F0828DE80FF11D858D90E008958FEF1A
:100410009FEF0895FC01918D228D892F90E0805CE3
:100420009F4F821B91098F73992708958FE192E066
:10043000F1DF21E0892B09F420E0822F0895FC01EF
:10044000A48DA80FB92FB11DA35ABF4F2C91848D35
:1004500090E001968F739927848FA689B7892C9392
:10046000A089B1898C91837080648C93938D848DE5
:10047000981306C00288F389E02D80818F7D8083E8
:100480000895EF92FF920F931F93CF93DF93EC01A8
:1004900081E0888F9B8D8C8D98131AC0E889F9892B
:1004A000808185FF15C09FB7F894EE89FF8960832E
:1004B000E889F98980818370806480839FBF81E0AF
:1004C00090E0DF91CF911F910F91FF90EF900895F1
:1004D000F62E0B8D10E00F5F1F4F0F731127E02ECC
:1004E0008C8D8E110BC00FB607FCFACFE889F98905
:1004F000808185FFF5CFCE01A2DFF2CFEB8DEC0F2F
:10050000FD2FF11DE35AFF4FF0829FB7F8940B8F38
:10051000EA89FB8980818062D0CFCF93DF93EC01A1
:10052000888D8823B1F0AA89BB89E889F9898C91E3
:1005300085FD03C0808186FD0CC00FB607FCF7CF98
:100540008C9185FFF2CF808185FFEDCFCE0177DFE3
:10055000EACFDF91CF91089580E090E0892B21F0E0
:1005600065DF81110E94000080E090E0892B49F056
:1005700080E090E0892B29F00E94000081110E9408
:10058000000080E090E0892B49F080E090E0892B2A
:1005900029F00E94000081110E94000080E090E09C
:1005A000892B49F080E090E0892B29F00E9400001F
:1005B00081110C94000008953FB7F89480911B02BC
:1005C00090911C02A0911D02B0911E0226B5A89B1D
:1005D00005C02F3F19F00196A11DB11D3FBFBA2FD5
:1005E000A92F982F8827BC01CD01620F711D811D95
:1005F000911D42E0660F771F881F991F4A95D1F71A
:1006000008958F929F92AF92BF92CF92DF92EF9216
:10061000FF92D2DF4B015C0188EEC82E83E0D82E1A
:10062000E12CF12CC9DF681979098A099B09683E18
:10063000734081059105B0F321E0C21AD108E108A9
:10064000F10888EE880E83E0981EA11CB11CC1142D
:10065000D104E104F10431F7FF90EF90DF90CF90E7
:10066000BF90AF909F908F900895FC010190002063
:10067000E9F73197AF01481B590BBC018FE192E0BC
:100680006BCE1F920F920FB60F9211240BB60F92E2
:100690002F933F934F935F936F937F938F939F938A
:1006A000AF93BF93EF93FF938FE192E0C8DEFF918A
:1006B000EF91BF91AF919F918F917F916F915F91DA
:1006C0004F913F912F910F900BBE0F900FBE0F9047
:1006D0001F9018951F920F920FB60F9211240BB610
:1006E0000F922F938F939F93EF93FF93E0912F029D
:1006F000F09130028081E0913502F091360282FD66
:100700001DC09081809138028F5F8F7320913902D4
:10071000821741F0E0913802F0E0E15EFD4F958FE5
:1007200080933802FF91EF919F918F912F910F90BD
:100730000BBE0F900FBE0F901F9018958081F2CFC7
:100740001F920F920FB60F9211242F933F938F9306
:100750009F93AF93BF938091170290911802A0913D
:100760001902B0911A023091160223E0230F2D379F
:1007700058F50196A11DB11D209316028093170212
:1007800090931802A0931902B0931A0280911B0251
:1007900090911C02A0911D02B0911E020196A11D14
:1007A000B11D80931B0290931C02A0931D02B09375
:1007B0001E02BF91AF919F918F913F912F910F900A
:1007C0000FBE0F901F90189526E8230F0296A11DCB
:1007D000B11DD2CF789484B5826084BD84B5816028
:1007E00084BD85B5826085BD85B5816085BD8091FC
:1007F0006E00816080936E00109281008091810074
:10080000826080938100809181008160809381006B
:10081000809180008160809380008091B10084602D
:100820008093B1008091B00081608093B00080918E
:10083000910082608093910080919100816080930B
:100840009100809190008160809390008091A10040
:1008500082608093A1008091A10081608093A100BB
:100860008091A00081608093A0008091210182602E
:1008700080932101809121018160809321018091E9
:10088000200181608093200180917A0084608093B0
:100890007A0080917A00826080937A0080917A0059
:1008A000816080937A0080917A00806880937A00DA
:1008B0001092C100EBE6F1E02491E5E2F1E08491D1
:1008C000882399F090E0880F991FFC01EC51FF4FAD
:1008D000A591B491FC01E250FF4F859194918FB79F
:1008E000F894EC91E22BEC938FBFE0912F02F09102
:1008F000300282E08083E0912B02F0912C02108282
:10090000E0912D02F0912E028FEC8083109237023D
:10091000E0913302F091340286E08083E09131026D
:10092000F0913202808180618083E0913102F09108
:100930003202808188608083E0913102F09132023E
:10094000808180688083E0913102F0913202808161
:100950008F7D808381E079DC54DE82E192E085DE68
:1009600080E073DC4EDE84E192E07FDE81E06DDCCE
:1009700048DE82E192E079DEEFDDECCFEFE1F2E0FC
:100980001382128288EE93E0A0E0B0E08483958326
:10099000A683B78384E092E09183808385EC90E026
:1009A0009587848784EC90E09787868780EC90E039
:1009B000918B808B81EC90E0938B828B82EC90E02A
:1009C000958B848B86EC90E0978B868B118E128EA4
:1009D000138E148E0895EE0FFF1F881F8BBF079094
:0A09E000F691E02D1994F894FFCF72
:1009EA00000000004102AC01D9018D020A02E801AF
:0609FA00FC013100300099
:00000001FF
